{"contracts/SecureLoan.sol":{"SecureLoan":{"abi":[{"anonymous":false,"inputs":[{"indexed":false,"internalType":"uint256","name":"loanId","type":"uint256"},{"indexed":false,"internalType":"address","name":"borrower","type":"address"},{"indexed":false,"internalType":"uint256","name":"amount","type":"uint256"}],"name":"LoanCreated","type":"event"},{"anonymous":false,"inputs":[{"indexed":false,"internalType":"uint256","name":"loanId","type":"uint256"}],"name":"LoanRepaid","type":"event"},{"inputs":[{"internalType":"uint256","name":"_amount","type":"uint256"},{"internalType":"uint256","name":"_repaymentAmount","type":"uint256"},{"internalType":"uint256","name":"_duration","type":"uint256"}],"name":"createLoan","outputs":[],"stateMutability":"nonpayable","type":"function"},{"inputs":[],"name":"loanCount","outputs":[{"internalType":"uint256","name":"","type":"uint256"}],"stateMutability":"view","type":"function"},{"inputs":[{"internalType":"uint256","name":"","type":"uint256"}],"name":"loans","outputs":[{"internalType":"address","name":"borrower","type":"address"},{"internalType":"uint256","name":"amount","type":"uint256"},{"internalType":"uint256","name":"repaymentAmount","type":"uint256"},{"internalType":"uint256","name":"deadline","type":"uint256"},{"internalType":"bool","name":"isActive","type":"bool"}],"stateMutability":"view","type":"function"},{"inputs":[{"internalType":"uint256","name":"_loanId","type":"uint256"}],"name":"repayLoan","outputs":[],"stateMutability":"payable","type":"function"}],"evm":{"bytecode":{"linkReferences":{},"object":"6080604052348015600f57600080fd5b506109528061001f6000396000f3fe60806040526004361061003f5760003560e01c8063904b513b14610044578063ab7b1c891461006d578063ce63094d14610089578063e1ec3c68146100b4575b600080fd5b34801561005057600080fd5b5061006b600480360381019061006691906104d4565b6100f5565b005b61008760048036038101906100829190610527565b6102bb565b005b34801561009557600080fd5b5061009e610430565b6040516100ab9190610563565b60405180910390f35b3480156100c057600080fd5b506100db60048036038101906100d69190610527565b610436565b6040516100ec9594939291906105da565b60405180910390f35b60008311610138576040517f08c379a000000000000000000000000000000000000000000000000000000000815260040161012f906106b0565b60405180910390fd5b82821161017a576040517f08c379a000000000000000000000000000000000000000000000000000000000815260040161017190610742565b60405180910390fd5b6001600081548092919061018d90610791565b91905055506040518060a001604052803373ffffffffffffffffffffffffffffffffffffffff16815260200184815260200183815260200182426101d191906107d9565b815260200160011515815250600080600154815260200190815260200160002060008201518160000160006101000a81548173ffffffffffffffffffffffffffffffffffffffff021916908373ffffffffffffffffffffffffffffffffffffffff16021790555060208201518160010155604082015181600201556060820151816003015560808201518160040160006101000a81548160ff0219169083151502179055509050507f8910ba13a55695f056e224bbbc6b65d866b12a8c2fbdf387fb853a1cca298cd760015433856040516102ae9392919061080d565b60405180910390a1505050565b600080600083815260200190815260200160002090508060040160009054906101000a900460ff16610322576040517f08c379a000000000000000000000000000000000000000000000000000000000815260040161031990610890565b60405180910390fd5b8060020154341015610369576040517f08c379a0000000000000000000000000000000000000000000000000000000008152600401610360906108fc565b60405180910390fd5b60008160040160006101000a81548160ff0219169083151502179055508060000160009054906101000a900473ffffffffffffffffffffffffffffffffffffffff1673ffffffffffffffffffffffffffffffffffffffff166108fc82600101549081150290604051600060405180830381858888f193505050501580156103f4573d6000803e3d6000fd5b507f9a7851747cd7ffb3fe0a32caf3da48b31f27cebe131267051640f8b72fc47186826040516104249190610563565b60405180910390a15050565b60015481565b60006020528060005260406000206000915090508060000160009054906101000a900473ffffffffffffffffffffffffffffffffffffffff16908060010154908060020154908060030154908060040160009054906101000a900460ff16905085565b600080fd5b6000819050919050565b6104b18161049e565b81146104bc57600080fd5b50565b6000813590506104ce816104a8565b92915050565b6000806000606084860312156104ed576104ec610499565b5b60006104fb868287016104bf565b935050602061050c868287016104bf565b925050604061051d868287016104bf565b9150509250925092565b60006020828403121561053d5761053c610499565b5b600061054b848285016104bf565b91505092915050565b61055d8161049e565b82525050565b60006020820190506105786000830184610554565b92915050565b600073ffffffffffffffffffffffffffffffffffffffff82169050919050565b60006105a98261057e565b9050919050565b6105b98161059e565b82525050565b60008115159050919050565b6105d4816105bf565b82525050565b600060a0820190506105ef60008301886105b0565b6105fc6020830187610554565b6106096040830186610554565b6106166060830185610554565b61062360808301846105cb565b9695505050505050565b600082825260208201905092915050565b7f4c6f616e20616d6f756e74206d7573742062652067726561746572207468616e60008201527f2030000000000000000000000000000000000000000000000000000000000000602082015250565b600061069a60228361062d565b91506106a58261063e565b604082019050919050565b600060208201905081810360008301526106c98161068d565b9050919050565b7f52657061796d656e7420616d6f756e74206d757374206265206772656174657260008201527f207468616e206c6f616e20616d6f756e74000000000000000000000000000000602082015250565b600061072c60318361062d565b9150610737826106d0565b604082019050919050565b6000602082019050818103600083015261075b8161071f565b9050919050565b7f4e487b7100000000000000000000000000000000000000000000000000000000600052601160045260246000fd5b600061079c8261049e565b91507fffffffffffffffffffffffffffffffffffffffffffffffffffffffffffffffff82036107ce576107cd610762565b5b600182019050919050565b60006107e48261049e565b91506107ef8361049e565b925082820190508082111561080757610806610762565b5b92915050565b60006060820190506108226000830186610554565b61082f60208301856105b0565b61083c6040830184610554565b949350505050565b7f4c6f616e206973206e6f74206163746976650000000000000000000000000000600082015250565b600061087a60128361062d565b915061088582610844565b602082019050919050565b600060208201905081810360008301526108a98161086d565b9050919050565b7f496e73756666696369656e742072657061796d656e7420616d6f756e74000000600082015250565b60006108e6601d8361062d565b91506108f1826108b0565b602082019050919050565b60006020820190508181036000830152610915816108d9565b905091905056fea2646970667358221220ca1571b60dbdaa224276e074726539ffb233a40479e7114f1318a7662c9be8d164736f6c634300081b0033","opcodes":"PUSH1 0x80 PUSH1 0x40 MSTORE CALLVALUE DUP1 ISZERO PUSH1 0xF JUMPI PUSH1 0x0 DUP1 REVERT JUMPDEST POP PUSH2 0x952 DUP1 PUSH2 0x1F PUSH1 0x0 CODECOPY PUSH1 0x0 RETURN INVALID PUSH1 0x80 PUSH1 0x40 MSTORE PUSH1 0x4 CALLDATASIZE LT PUSH2 0x3F JUMPI PUSH1 0x0 CALLDATALOAD PUSH1 0xE0 SHR DUP1 PUSH4 0x904B513B EQ PUSH2 0x44 JUMPI DUP1 PUSH4 0xAB7B1C89 EQ PUSH2 0x6D JUMPI DUP1 PUSH4 0xCE63094D EQ PUSH2 0x89 JUMPI DUP1 PUSH4 0xE1EC3C68 EQ PUSH2 0xB4 JUMPI JUMPDEST PUSH1 0x0 DUP1 REVERT JUMPDEST CALLVALUE DUP1 ISZERO PUSH2 0x50 JUMPI PUSH1 0x0 DUP1 REVERT JUMPDEST POP PUSH2 0x6B PUSH1 0x4 DUP1 CALLDATASIZE SUB DUP2 ADD SWAP1 PUSH2 0x66 SWAP2 SWAP1 PUSH2 0x4D4 JUMP JUMPDEST PUSH2 0xF5 JUMP JUMPDEST STOP JUMPDEST PUSH2 0x87 PUSH1 0x4 DUP1 CALLDATASIZE SUB DUP2 ADD SWAP1 PUSH2 0x82 SWAP2 SWAP1 PUSH2 0x527 JUMP JUMPDEST PUSH2 0x2BB JUMP JUMPDEST STOP JUMPDEST CALLVALUE DUP1 ISZERO PUSH2 0x95 JUMPI PUSH1 0x0 DUP1 REVERT JUMPDEST POP PUSH2 0x9E PUSH2 0x430 JUMP JUMPDEST PUSH1 0x40 MLOAD PUSH2 0xAB SWAP2 SWAP1 PUSH2 0x563 JUMP JUMPDEST PUSH1 0x40 MLOAD DUP1 SWAP2 SUB SWAP1 RETURN JUMPDEST CALLVALUE DUP1 ISZERO PUSH2 0xC0 JUMPI PUSH1 0x0 DUP1 REVERT JUMPDEST POP PUSH2 0xDB PUSH1 0x4 DUP1 CALLDATASIZE SUB DUP2 ADD SWAP1 PUSH2 0xD6 SWAP2 SWAP1 PUSH2 0x527 JUMP JUMPDEST PUSH2 0x436 JUMP JUMPDEST PUSH1 0x40 MLOAD PUSH2 0xEC SWAP6 SWAP5 SWAP4 SWAP3 SWAP2 SWAP1 PUSH2 0x5DA JUMP JUMPDEST PUSH1 0x40 MLOAD DUP1 SWAP2 SUB SWAP1 RETURN JUMPDEST PUSH1 0x0 DUP4 GT PUSH2 0x138 JUMPI PUSH1 0x40 MLOAD PUSH32 0x8C379A000000000000000000000000000000000000000000000000000000000 DUP2 MSTORE PUSH1 0x4 ADD PUSH2 0x12F SWAP1 PUSH2 0x6B0 JUMP JUMPDEST PUSH1 0x40 MLOAD DUP1 SWAP2 SUB SWAP1 REVERT JUMPDEST DUP3 DUP3 GT PUSH2 0x17A JUMPI PUSH1 0x40 MLOAD PUSH32 0x8C379A000000000000000000000000000000000000000000000000000000000 DUP2 MSTORE PUSH1 0x4 ADD PUSH2 0x171 SWAP1 PUSH2 0x742 JUMP JUMPDEST PUSH1 0x40 MLOAD DUP1 SWAP2 SUB SWAP1 REVERT JUMPDEST PUSH1 0x1 PUSH1 0x0 DUP2 SLOAD DUP1 SWAP3 SWAP2 SWAP1 PUSH2 0x18D SWAP1 PUSH2 0x791 JUMP JUMPDEST SWAP2 SWAP1 POP SSTORE POP PUSH1 0x40 MLOAD DUP1 PUSH1 0xA0 ADD PUSH1 0x40 MSTORE DUP1 CALLER PUSH20 0xFFFFFFFFFFFFFFFFFFFFFFFFFFFFFFFFFFFFFFFF AND DUP2 MSTORE PUSH1 0x20 ADD DUP5 DUP2 MSTORE PUSH1 0x20 ADD DUP4 DUP2 MSTORE PUSH1 0x20 ADD DUP3 TIMESTAMP PUSH2 0x1D1 SWAP2 SWAP1 PUSH2 0x7D9 JUMP JUMPDEST DUP2 MSTORE PUSH1 0x20 ADD PUSH1 0x1 ISZERO ISZERO DUP2 MSTORE POP PUSH1 0x0 DUP1 PUSH1 0x1 SLOAD DUP2 MSTORE PUSH1 0x20 ADD SWAP1 DUP2 MSTORE PUSH1 0x20 ADD PUSH1 0x0 KECCAK256 PUSH1 0x0 DUP3 ADD MLOAD DUP2 PUSH1 0x0 ADD PUSH1 0x0 PUSH2 0x100 EXP DUP2 SLOAD DUP2 PUSH20 0xFFFFFFFFFFFFFFFFFFFFFFFFFFFFFFFFFFFFFFFF MUL NOT AND SWAP1 DUP4 PUSH20 0xFFFFFFFFFFFFFFFFFFFFFFFFFFFFFFFFFFFFFFFF AND MUL OR SWAP1 SSTORE POP PUSH1 0x20 DUP3 ADD MLOAD DUP2 PUSH1 0x1 ADD SSTORE PUSH1 0x40 DUP3 ADD MLOAD DUP2 PUSH1 0x2 ADD SSTORE PUSH1 0x60 DUP3 ADD MLOAD DUP2 PUSH1 0x3 ADD SSTORE PUSH1 0x80 DUP3 ADD MLOAD DUP2 PUSH1 0x4 ADD PUSH1 0x0 PUSH2 0x100 EXP DUP2 SLOAD DUP2 PUSH1 0xFF MUL NOT AND SWAP1 DUP4 ISZERO ISZERO MUL OR SWAP1 SSTORE POP SWAP1 POP POP PUSH32 0x8910BA13A55695F056E224BBBC6B65D866B12A8C2FBDF387FB853A1CCA298CD7 PUSH1 0x1 SLOAD CALLER DUP6 PUSH1 0x40 MLOAD PUSH2 0x2AE SWAP4 SWAP3 SWAP2 SWAP1 PUSH2 0x80D JUMP JUMPDEST PUSH1 0x40 MLOAD DUP1 SWAP2 SUB SWAP1 LOG1 POP POP POP JUMP JUMPDEST PUSH1 0x0 DUP1 PUSH1 0x0 DUP4 DUP2 MSTORE PUSH1 0x20 ADD SWAP1 DUP2 MSTORE PUSH1 0x20 ADD PUSH1 0x0 KECCAK256 SWAP1 POP DUP1 PUSH1 0x4 ADD PUSH1 0x0 SWAP1 SLOAD SWAP1 PUSH2 0x100 EXP SWAP1 DIV PUSH1 0xFF AND PUSH2 0x322 JUMPI PUSH1 0x40 MLOAD PUSH32 0x8C379A000000000000000000000000000000000000000000000000000000000 DUP2 MSTORE PUSH1 0x4 ADD PUSH2 0x319 SWAP1 PUSH2 0x890 JUMP JUMPDEST PUSH1 0x40 MLOAD DUP1 SWAP2 SUB SWAP1 REVERT JUMPDEST DUP1 PUSH1 0x2 ADD SLOAD CALLVALUE LT ISZERO PUSH2 0x369 JUMPI PUSH1 0x40 MLOAD PUSH32 0x8C379A000000000000000000000000000000000000000000000000000000000 DUP2 MSTORE PUSH1 0x4 ADD PUSH2 0x360 SWAP1 PUSH2 0x8FC JUMP JUMPDEST PUSH1 0x40 MLOAD DUP1 SWAP2 SUB SWAP1 REVERT JUMPDEST PUSH1 0x0 DUP2 PUSH1 0x4 ADD PUSH1 0x0 PUSH2 0x100 EXP DUP2 SLOAD DUP2 PUSH1 0xFF MUL NOT AND SWAP1 DUP4 ISZERO ISZERO MUL OR SWAP1 SSTORE POP DUP1 PUSH1 0x0 ADD PUSH1 0x0 SWAP1 SLOAD SWAP1 PUSH2 0x100 EXP SWAP1 DIV PUSH20 0xFFFFFFFFFFFFFFFFFFFFFFFFFFFFFFFFFFFFFFFF AND PUSH20 0xFFFFFFFFFFFFFFFFFFFFFFFFFFFFFFFFFFFFFFFF AND PUSH2 0x8FC DUP3 PUSH1 0x1 ADD SLOAD SWAP1 DUP2 ISZERO MUL SWAP1 PUSH1 0x40 MLOAD PUSH1 0x0 PUSH1 0x40 MLOAD DUP1 DUP4 SUB DUP2 DUP6 DUP9 DUP9 CALL SWAP4 POP POP POP POP ISZERO DUP1 ISZERO PUSH2 0x3F4 JUMPI RETURNDATASIZE PUSH1 0x0 DUP1 RETURNDATACOPY RETURNDATASIZE PUSH1 0x0 REVERT JUMPDEST POP PUSH32 0x9A7851747CD7FFB3FE0A32CAF3DA48B31F27CEBE131267051640F8B72FC47186 DUP3 PUSH1 0x40 MLOAD PUSH2 0x424 SWAP2 SWAP1 PUSH2 0x563 JUMP JUMPDEST PUSH1 0x40 MLOAD DUP1 SWAP2 SUB SWAP1 LOG1 POP POP JUMP JUMPDEST PUSH1 0x1 SLOAD DUP2 JUMP JUMPDEST PUSH1 0x0 PUSH1 0x20 MSTORE DUP1 PUSH1 0x0 MSTORE PUSH1 0x40 PUSH1 0x0 KECCAK256 PUSH1 0x0 SWAP2 POP SWAP1 POP DUP1 PUSH1 0x0 ADD PUSH1 0x0 SWAP1 SLOAD SWAP1 PUSH2 0x100 EXP SWAP1 DIV PUSH20 0xFFFFFFFFFFFFFFFFFFFFFFFFFFFFFFFFFFFFFFFF AND SWAP1 DUP1 PUSH1 0x1 ADD SLOAD SWAP1 DUP1 PUSH1 0x2 ADD SLOAD SWAP1 DUP1 PUSH1 0x3 ADD SLOAD SWAP1 DUP1 PUSH1 0x4 ADD PUSH1 0x0 SWAP1 SLOAD SWAP1 PUSH2 0x100 EXP SWAP1 DIV PUSH1 0xFF AND SWAP1 POP DUP6 JUMP JUMPDEST PUSH1 0x0 DUP1 REVERT JUMPDEST PUSH1 0x0 DUP2 SWAP1 POP SWAP2 SWAP1 POP JUMP JUMPDEST PUSH2 0x4B1 DUP2 PUSH2 0x49E JUMP JUMPDEST DUP2 EQ PUSH2 0x4BC JUMPI PUSH1 0x0 DUP1 REVERT JUMPDEST POP JUMP JUMPDEST PUSH1 0x0 DUP2 CALLDATALOAD SWAP1 POP PUSH2 0x4CE DUP2 PUSH2 0x4A8 JUMP JUMPDEST SWAP3 SWAP2 POP POP JUMP JUMPDEST PUSH1 0x0 DUP1 PUSH1 0x0 PUSH1 0x60 DUP5 DUP7 SUB SLT ISZERO PUSH2 0x4ED JUMPI PUSH2 0x4EC PUSH2 0x499 JUMP JUMPDEST JUMPDEST PUSH1 0x0 PUSH2 0x4FB DUP7 DUP3 DUP8 ADD PUSH2 0x4BF JUMP JUMPDEST SWAP4 POP POP PUSH1 0x20 PUSH2 0x50C DUP7 DUP3 DUP8 ADD PUSH2 0x4BF JUMP JUMPDEST SWAP3 POP POP PUSH1 0x40 PUSH2 0x51D DUP7 DUP3 DUP8 ADD PUSH2 0x4BF JUMP JUMPDEST SWAP2 POP POP SWAP3 POP SWAP3 POP SWAP3 JUMP JUMPDEST PUSH1 0x0 PUSH1 0x20 DUP3 DUP5 SUB SLT ISZERO PUSH2 0x53D JUMPI PUSH2 0x53C PUSH2 0x499 JUMP JUMPDEST JUMPDEST PUSH1 0x0 PUSH2 0x54B DUP5 DUP3 DUP6 ADD PUSH2 0x4BF JUMP JUMPDEST SWAP2 POP POP SWAP3 SWAP2 POP POP JUMP JUMPDEST PUSH2 0x55D DUP2 PUSH2 0x49E JUMP JUMPDEST DUP3 MSTORE POP POP JUMP JUMPDEST PUSH1 0x0 PUSH1 0x20 DUP3 ADD SWAP1 POP PUSH2 0x578 PUSH1 0x0 DUP4 ADD DUP5 PUSH2 0x554 JUMP JUMPDEST SWAP3 SWAP2 POP POP JUMP JUMPDEST PUSH1 0x0 PUSH20 0xFFFFFFFFFFFFFFFFFFFFFFFFFFFFFFFFFFFFFFFF DUP3 AND SWAP1 POP SWAP2 SWAP1 POP JUMP JUMPDEST PUSH1 0x0 PUSH2 0x5A9 DUP3 PUSH2 0x57E JUMP JUMPDEST SWAP1 POP SWAP2 SWAP1 POP JUMP JUMPDEST PUSH2 0x5B9 DUP2 PUSH2 0x59E JUMP JUMPDEST DUP3 MSTORE POP POP JUMP JUMPDEST PUSH1 0x0 DUP2 ISZERO ISZERO SWAP1 POP SWAP2 SWAP1 POP JUMP JUMPDEST PUSH2 0x5D4 DUP2 PUSH2 0x5BF JUMP JUMPDEST DUP3 MSTORE POP POP JUMP JUMPDEST PUSH1 0x0 PUSH1 0xA0 DUP3 ADD SWAP1 POP PUSH2 0x5EF PUSH1 0x0 DUP4 ADD DUP9 PUSH2 0x5B0 JUMP JUMPDEST PUSH2 0x5FC PUSH1 0x20 DUP4 ADD DUP8 PUSH2 0x554 JUMP JUMPDEST PUSH2 0x609 PUSH1 0x40 DUP4 ADD DUP7 PUSH2 0x554 JUMP JUMPDEST PUSH2 0x616 PUSH1 0x60 DUP4 ADD DUP6 PUSH2 0x554 JUMP JUMPDEST PUSH2 0x623 PUSH1 0x80 DUP4 ADD DUP5 PUSH2 0x5CB JUMP JUMPDEST SWAP7 SWAP6 POP POP POP POP POP POP JUMP JUMPDEST PUSH1 0x0 DUP3 DUP3 MSTORE PUSH1 0x20 DUP3 ADD SWAP1 POP SWAP3 SWAP2 POP POP JUMP JUMPDEST PUSH32 0x4C6F616E20616D6F756E74206D7573742062652067726561746572207468616E PUSH1 0x0 DUP3 ADD MSTORE PUSH32 0x2030000000000000000000000000000000000000000000000000000000000000 PUSH1 0x20 DUP3 ADD MSTORE POP JUMP JUMPDEST PUSH1 0x0 PUSH2 0x69A PUSH1 0x22 DUP4 PUSH2 0x62D JUMP JUMPDEST SWAP2 POP PUSH2 0x6A5 DUP3 PUSH2 0x63E JUMP JUMPDEST PUSH1 0x40 DUP3 ADD SWAP1 POP SWAP2 SWAP1 POP JUMP JUMPDEST PUSH1 0x0 PUSH1 0x20 DUP3 ADD SWAP1 POP DUP2 DUP2 SUB PUSH1 0x0 DUP4 ADD MSTORE PUSH2 0x6C9 DUP2 PUSH2 0x68D JUMP JUMPDEST SWAP1 POP SWAP2 SWAP1 POP JUMP JUMPDEST PUSH32 0x52657061796D656E7420616D6F756E74206D7573742062652067726561746572 PUSH1 0x0 DUP3 ADD MSTORE PUSH32 0x207468616E206C6F616E20616D6F756E74000000000000000000000000000000 PUSH1 0x20 DUP3 ADD MSTORE POP JUMP JUMPDEST PUSH1 0x0 PUSH2 0x72C PUSH1 0x31 DUP4 PUSH2 0x62D JUMP JUMPDEST SWAP2 POP PUSH2 0x737 DUP3 PUSH2 0x6D0 JUMP JUMPDEST PUSH1 0x40 DUP3 ADD SWAP1 POP SWAP2 SWAP1 POP JUMP JUMPDEST PUSH1 0x0 PUSH1 0x20 DUP3 ADD SWAP1 POP DUP2 DUP2 SUB PUSH1 0x0 DUP4 ADD MSTORE PUSH2 0x75B DUP2 PUSH2 0x71F JUMP JUMPDEST SWAP1 POP SWAP2 SWAP1 POP JUMP JUMPDEST PUSH32 0x4E487B7100000000000000000000000000000000000000000000000000000000 PUSH1 0x0 MSTORE PUSH1 0x11 PUSH1 0x4 MSTORE PUSH1 0x24 PUSH1 0x0 REVERT JUMPDEST PUSH1 0x0 PUSH2 0x79C DUP3 PUSH2 0x49E JUMP JUMPDEST SWAP2 POP PUSH32 0xFFFFFFFFFFFFFFFFFFFFFFFFFFFFFFFFFFFFFFFFFFFFFFFFFFFFFFFFFFFFFFFF DUP3 SUB PUSH2 0x7CE JUMPI PUSH2 0x7CD PUSH2 0x762 JUMP JUMPDEST JUMPDEST PUSH1 0x1 DUP3 ADD SWAP1 POP SWAP2 SWAP1 POP JUMP JUMPDEST PUSH1 0x0 PUSH2 0x7E4 DUP3 PUSH2 0x49E JUMP JUMPDEST SWAP2 POP PUSH2 0x7EF DUP4 PUSH2 0x49E JUMP JUMPDEST SWAP3 POP DUP3 DUP3 ADD SWAP1 POP DUP1 DUP3 GT ISZERO PUSH2 0x807 JUMPI PUSH2 0x806 PUSH2 0x762 JUMP JUMPDEST JUMPDEST SWAP3 SWAP2 POP POP JUMP JUMPDEST PUSH1 0x0 PUSH1 0x60 DUP3 ADD SWAP1 POP PUSH2 0x822 PUSH1 0x0 DUP4 ADD DUP7 PUSH2 0x554 JUMP JUMPDEST PUSH2 0x82F PUSH1 0x20 DUP4 ADD DUP6 PUSH2 0x5B0 JUMP JUMPDEST PUSH2 0x83C PUSH1 0x40 DUP4 ADD DUP5 PUSH2 0x554 JUMP JUMPDEST SWAP5 SWAP4 POP POP POP POP JUMP JUMPDEST PUSH32 0x4C6F616E206973206E6F74206163746976650000000000000000000000000000 PUSH1 0x0 DUP3 ADD MSTORE POP JUMP JUMPDEST PUSH1 0x0 PUSH2 0x87A PUSH1 0x12 DUP4 PUSH2 0x62D JUMP JUMPDEST SWAP2 POP PUSH2 0x885 DUP3 PUSH2 0x844 JUMP JUMPDEST PUSH1 0x20 DUP3 ADD SWAP1 POP SWAP2 SWAP1 POP JUMP JUMPDEST PUSH1 0x0 PUSH1 0x20 DUP3 ADD SWAP1 POP DUP2 DUP2 SUB PUSH1 0x0 DUP4 ADD MSTORE PUSH2 0x8A9 DUP2 PUSH2 0x86D JUMP JUMPDEST SWAP1 POP SWAP2 SWAP1 POP JUMP JUMPDEST PUSH32 0x496E73756666696369656E742072657061796D656E7420616D6F756E74000000 PUSH1 0x0 DUP3 ADD MSTORE POP JUMP JUMPDEST PUSH1 0x0 PUSH2 0x8E6 PUSH1 0x1D DUP4 PUSH2 0x62D JUMP JUMPDEST SWAP2 POP PUSH2 0x8F1 DUP3 PUSH2 0x8B0 JUMP JUMPDEST PUSH1 0x20 DUP3 ADD SWAP1 POP SWAP2 SWAP1 POP JUMP JUMPDEST PUSH1 0x0 PUSH1 0x20 DUP3 ADD SWAP1 POP DUP2 DUP2 SUB PUSH1 0x0 DUP4 ADD MSTORE PUSH2 0x915 DUP2 PUSH2 0x8D9 JUMP JUMPDEST SWAP1 POP SWAP2 SWAP1 POP JUMP INVALID LOG2 PUSH5 0x6970667358 0x22 SLT KECCAK256 0xCA ISZERO PUSH18 0xB60DBDAA224276E074726539FFB233A40479 0xE7 GT 0x4F SGT XOR 0xA7 PUSH7 0x2C9BE8D164736F PUSH13 0x634300081B0033000000000000 "},"methodIdentifiers":{"createLoan(uint256,uint256,uint256)":"904b513b","loanCount()":"ce63094d","loans(uint256)":"e1ec3c68","repayLoan(uint256)":"ab7b1c89"}}}}}