{
  "_format": "hh-sol-artifact-1",
  "contractName": "SecureLoan",
  "sourceName": "contracts/SecureLoan.sol",
  "abi": [
    {
      "anonymous": false,
      "inputs": [
        {
          "indexed": false,
          "internalType": "uint256",
          "name": "loanId",
          "type": "uint256"
        },
        {
          "indexed": false,
          "internalType": "address",
          "name": "borrower",
          "type": "address"
        },
        {
          "indexed": false,
          "internalType": "uint256",
          "name": "amount",
          "type": "uint256"
        }
      ],
      "name": "LoanCreated",
      "type": "event"
    },
    {
      "anonymous": false,
      "inputs": [
        {
          "indexed": false,
          "internalType": "uint256",
          "name": "loanId",
          "type": "uint256"
        }
      ],
      "name": "LoanRepaid",
      "type": "event"
    },
    {
      "inputs": [
        {
          "internalType": "uint256",
          "name": "_amount",
          "type": "uint256"
        },
        {
          "internalType": "uint256",
          "name": "_repaymentAmount",
          "type": "uint256"
        },
        {
          "internalType": "uint256",
          "name": "_duration",
          "type": "uint256"
        }
      ],
      "name": "createLoan",
      "outputs": [],
      "stateMutability": "nonpayable",
      "type": "function"
    },
    {
      "inputs": [],
      "name": "loanCount",
      "outputs": [
        {
          "internalType": "uint256",
          "name": "",
          "type": "uint256"
        }
      ],
      "stateMutability": "view",
      "type": "function"
    },
    {
      "inputs": [
        {
          "internalType": "uint256",
          "name": "",
          "type": "uint256"
        }
      ],
      "name": "loans",
      "outputs": [
        {
          "internalType": "address",
          "name": "borrower",
          "type": "address"
        },
        {
          "internalType": "uint256",
          "name": "amount",
          "type": "uint256"
        },
        {
          "internalType": "uint256",
          "name": "repaymentAmount",
          "type": "uint256"
        },
        {
          "internalType": "uint256",
          "name": "deadline",
          "type": "uint256"
        },
        {
          "internalType": "bool",
          "name": "isActive",
          "type": "bool"
        }
      ],
      "stateMutability": "view",
      "type": "function"
    },
    {
      "inputs": [
        {
          "internalType": "uint256",
          "name": "_loanId",
          "type": "uint256"
        }
      ],
      "name": "repayLoan",
      "outputs": [],
      "stateMutability": "payable",
      "type": "function"
    }
  ],
  "bytecode": "0x6080604052348015600f57600080fd5b506109528061001f6000396000f3fe60806040526004361061003f5760003560e01c8063904b513b14610044578063ab7b1c891461006d578063ce63094d14610089578063e1ec3c68146100b4575b600080fd5b34801561005057600080fd5b5061006b600480360381019061006691906104d4565b6100f5565b005b61008760048036038101906100829190610527565b6102bb565b005b34801561009557600080fd5b5061009e610430565b6040516100ab9190610563565b60405180910390f35b3480156100c057600080fd5b506100db60048036038101906100d69190610527565b610436565b6040516100ec9594939291906105da565b60405180910390f35b60008311610138576040517f08c379a000000000000000000000000000000000000000000000000000000000815260040161012f906106b0565b60405180910390fd5b82821161017a576040517f08c379a000000000000000000000000000000000000000000000000000000000815260040161017190610742565b60405180910390fd5b6001600081548092919061018d90610791565b91905055506040518060a001604052803373ffffffffffffffffffffffffffffffffffffffff16815260200184815260200183815260200182426101d191906107d9565b815260200160011515815250600080600154815260200190815260200160002060008201518160000160006101000a81548173ffffffffffffffffffffffffffffffffffffffff021916908373ffffffffffffffffffffffffffffffffffffffff16021790555060208201518160010155604082015181600201556060820151816003015560808201518160040160006101000a81548160ff0219169083151502179055509050507f8910ba13a55695f056e224bbbc6b65d866b12a8c2fbdf387fb853a1cca298cd760015433856040516102ae9392919061080d565b60405180910390a1505050565b600080600083815260200190815260200160002090508060040160009054906101000a900460ff16610322576040517f08c379a000000000000000000000000000000000000000000000000000000000815260040161031990610890565b60405180910390fd5b8060020154341015610369576040517f08c379a0000000000000000000000000000000000000000000000000000000008152600401610360906108fc565b60405180910390fd5b60008160040160006101000a81548160ff0219169083151502179055508060000160009054906101000a900473ffffffffffffffffffffffffffffffffffffffff1673ffffffffffffffffffffffffffffffffffffffff166108fc82600101549081150290604051600060405180830381858888f193505050501580156103f4573d6000803e3d6000fd5b507f9a7851747cd7ffb3fe0a32caf3da48b31f27cebe131267051640f8b72fc47186826040516104249190610563565b60405180910390a15050565b60015481565b60006020528060005260406000206000915090508060000160009054906101000a900473ffffffffffffffffffffffffffffffffffffffff16908060010154908060020154908060030154908060040160009054906101000a900460ff16905085565b600080fd5b6000819050919050565b6104b18161049e565b81146104bc57600080fd5b50565b6000813590506104ce816104a8565b92915050565b6000806000606084860312156104ed576104ec610499565b5b60006104fb868287016104bf565b935050602061050c868287016104bf565b925050604061051d868287016104bf565b9150509250925092565b60006020828403121561053d5761053c610499565b5b600061054b848285016104bf565b91505092915050565b61055d8161049e565b82525050565b60006020820190506105786000830184610554565b92915050565b600073ffffffffffffffffffffffffffffffffffffffff82169050919050565b60006105a98261057e565b9050919050565b6105b98161059e565b82525050565b60008115159050919050565b6105d4816105bf565b82525050565b600060a0820190506105ef60008301886105b0565b6105fc6020830187610554565b6106096040830186610554565b6106166060830185610554565b61062360808301846105cb565b9695505050505050565b600082825260208201905092915050565b7f4c6f616e20616d6f756e74206d7573742062652067726561746572207468616e60008201527f2030000000000000000000000000000000000000000000000000000000000000602082015250565b600061069a60228361062d565b91506106a58261063e565b604082019050919050565b600060208201905081810360008301526106c98161068d565b9050919050565b7f52657061796d656e7420616d6f756e74206d757374206265206772656174657260008201527f207468616e206c6f616e20616d6f756e74000000000000000000000000000000602082015250565b600061072c60318361062d565b9150610737826106d0565b604082019050919050565b6000602082019050818103600083015261075b8161071f565b9050919050565b7f4e487b7100000000000000000000000000000000000000000000000000000000600052601160045260246000fd5b600061079c8261049e565b91507fffffffffffffffffffffffffffffffffffffffffffffffffffffffffffffffff82036107ce576107cd610762565b5b600182019050919050565b60006107e48261049e565b91506107ef8361049e565b925082820190508082111561080757610806610762565b5b92915050565b60006060820190506108226000830186610554565b61082f60208301856105b0565b61083c6040830184610554565b949350505050565b7f4c6f616e206973206e6f74206163746976650000000000000000000000000000600082015250565b600061087a60128361062d565b915061088582610844565b602082019050919050565b600060208201905081810360008301526108a98161086d565b9050919050565b7f496e73756666696369656e742072657061796d656e7420616d6f756e74000000600082015250565b60006108e6601d8361062d565b91506108f1826108b0565b602082019050919050565b60006020820190508181036000830152610915816108d9565b905091905056fea2646970667358221220ca1571b60dbdaa224276e074726539ffb233a40479e7114f1318a7662c9be8d164736f6c634300081b0033",
  "linkReferences": {},
  "deployedLinkReferences": {}
}